:101002007580FFC2A7D2A6C2A500D2A5E580332271
:100FBF008F2612100240FB7F05120F90C2A7C2A608
:090FCF00D2A585268000C2A522EE
:100FD8008F2612100240FB7F05120F90D2A7C2A6DF
:090FE800D2A585268000C2A522D5
:0A102B007F01120FBF7F05020F9036
:100EB1008F228B238A248925ED7006E522248080E8
:100EC10004E52224C0FF120FBFAB23AA24A92512D7
:100ED1000538FF6010120FD874012525F525E4357A
:060EE10024F52480E42248
:100FA5008F228B23ED7006E52224808004E5222420
:0A0FB500C0FF120FBFAF23020FD8D8
:100E70007F0F120F907F38120FBF7F05120F907FE8
:100E800038120FBF7F05120F907F38120FBF7F05FA
:100E9000120F907F38120FBF7F08120FBF7F011211
:100EA0000FBF7F06120FBF7F05120F907F0C020F3E
:010EB000BF82
:03103500DFFE22B9
:070F89007FFA120F907FFABE
:100F9000AE07AF061EEF600C7FF51210357FF5121D
:050FA000103580EE2277
:100FF100AD07AF051DEF6008120F89120F8980F24E
:0110010022CC
:100DAC0020536F6E61722053797374656D2000202F
:100DBC0042793A2042616E676A6965204D6F200066
:100DCC00707265737320746865206B657920746F1D
:100DDC00006D6561737572652064697374616E630F
:100DEC006500202020205761726E696E67202120DB
:100DFC00202000204F7574206F662072616E67652D
:100E0C002021200054203D2025362E33660044201E
:0B0E1C003D2025382E3366206D6D0050
:100A6800C294120E707F14120F9012102B7BFF7A13
:100A78000D79ACE4FDFF120EB17BFF7A0D79BB7DD9
:100A880001E4FF120EB17F03120FF112102B7BFF4E
:100A98007A0D79CCE4FDFF120EB17BFF7A0D79DD7A
:100AA8007D01E4FF120EB12093FD3093FDD2941224
:100AB8000E278F538E528D518C507F01120F907BD1
:100AC800007A8079887843AF53AE52AD51AC50125A
:100AD8000204E4FBFA7980783F12000A120D067BC3
:100AE800337AB379A578431200FB8F7B8E7A8D79A0
:100AF8008C787F01120F90AF7BAE7AAD79AC78120B
:100B08000BD68F678E668D658C64E4FFFE7D7A7CDC
:100B180045AB67AA66A965A8641202A160025014D1
:100B2800E4FFFE7DA07C41AB67AA66A965A86412B4
:100B380002A1502112102B7BFF7A0D79EEE4FDFF04
:100B4800120EB17BFF7A0D79FF7D01E4FF120EB121
:100B5800D294020AAF7525FF75260E7527108553A6
:100B68002B85522A8551298550287B007A00795493
:100B78001206557525FF75260E75271A85672B856C
:100B8800662A8565298564287B007A0079681206BB
:100B9800557F01120F9012102B7B007A0079687D27
:100BA80001E4FF120EB17B007A007954E4FDFF12D4
:100BB8000EB17BDFE4FD7F0D120FA57B43E4FD7FC3
:0E0BC8000E120FA5C2947F01120F90020AAF09
:100F3A00C200D2907F05121035C2907FC8121035B8
:100F4A007F64121035D2907F32121035A29092002F
:070F5A007F19121035A200FF
:010F6100226D
:100F1100E4F523F524752308C290E524C313F524D1
:100F2100D2903090034324807F191210351523E5A8
:080F310023D3940050E2AF2429
:010F39002295
:020EE7008F2357
:100EE900E4F524752408C290E5231392907F1E121D
:100EF9001035D290E523C313F5231524E524D394A3
:080F09000050E37F19021035CE
:100E2700E4F522FFFE120F3A7FCC120EE77F441241
:100E37000EE77F0A121035120F3A7FCC120EE77FAA
:100E4700BE120EE7120F118F22120F11EF7F00FE55
:100E5700EF2522FFE43EFEAD07FCE4120313E4FB9B
:080E6700FA7980783D1200FBCE
:010E6F002260
:0D101200438901E4F58CF58AC296C297224D
:080BD6008F258E248D238C2253
:100BDE00E4F529F528F527F526F52DF52CF52BF559
:100BEE002AF52E1210127F0A121035D2963097FD6A
:100BFE00D28C2097FDC28CAF8CEFFEAD8A7C00E4C8
:100C0E002DFDEC3EFCE41203138F2D8E2C8D2B8CC0
:100C1E002AAB25AA24A923A8221200FBE4FBFA7909
:100C2E00FA7844120204E52E25E025E02430F8126D
:100C3E0005B7052EE52EC3940740A8E4F52EE4F57E
:100C4E002FC37407952EFFE52FC39F5063E52F2505
:100C5E00E025E02434F812059EE52F25E025E0245A
:100C6E0030F81205AA1202A160424040E52F25E09D
:100C7E0025E02430F812059E8F4F8E4E8D4D8C4CF4
:100C8E00E52F25E025E02434F812059EE52F25E01A
:100C9E0025E02430F81205B7AF4FAE4EAD4DAC4C3B
:100CAE00E52F25E025E02434F81205B7052F8091B5
:100CBE00052EE52E64077086752E01AF29AE28AD80
:100CCE0027AC26E52E25E025E02430F81205AA12E1
:100CDE00000A8F298E288D278C26052EE52EB40628
:100CEE00DAE4FBFA79A07840AF29AE28AD27AC261E
:030CFE00120204DB
:010D010022CF
:10000300020381E86480F8E933E83360110460F0A7
:10001300ED33EC337009E8FCE9FDEAFEEBFF220463
:1000230060DED3EB9FEA9EE99DE8C2E78CF0C2F75E
:1000330095F0400CE8CCF8E9CDF9EACEFAEBCFFB2A
:1000430012034C85D0F05804700320D5B3E8047034
:10005300075002B2D502038B92D5EC0460F7E4CCCF
:10006300C0E0C398F8603B94186008400DD0E0FBF3
:10007300020363E4FBFAC9FC8028E830E406E4C920
:10008300FBE4CAFCE830E305E4C9CACBFCE8540747
:100093006010F8C3E913F9EA13FAEB13FBEC13FC52
:1000A300D8F130F52FC3E49CFCEF9BFFEE9AFEEDF5
:1000B30099FDD0E0FBEF4E4D4C701222DB0302039F
:1000C30088EC2CFCEF33FFEE33FEED33FDED30E730
:1000D300EB020363EF2BFFEE3AFEED39FDD0E0FBBD
:1000E30050130BBB000302038BED13FDEE13FEEF66
:0800F30013FFEC13FC02036390
:1000FB00EC4D6011E8497017ED33EC3304600DE4FF
:10010B00FCFFFEFD22E933E8330470F80203811291
:10011B00034C58046009E4CC248150062850090292
:10012B00038B284003020388C0E0EB4A7044B9807C
:10013B0006D0E0FB020377EF4E701CBD8008EBFF8F
:10014B00EAFEE9FD80EBE98DF0A4FEE5F00201E4A7
:10015B00E9CDF9EAFEEBFFEF89F0A4FCE5F0CE89DF
:10016B00F0A42EFFE435F0CD89F0A42DFEE435F09C
:10017B008067EF4E7005BD80D780C3EF8BF0A4ACCA
:10018B00F0EE8BF0A42CFCE435F0F8EF8AF0A42C05
:10019B00E5F038FCE433CB8DF0A42CFCE5F03BF818
:1001AB00EE8AF0A42CFCE5F038F8E433CF89F0A408
:1001BB002CFCE5F038CF3400CE89F0A42FFFE5F00E
:1001CB003EFEE433C98DF0A42EFEE5F039CD8AF066
:1001DB00A42FFFE5F03EFEE43DFD33D0E0FB5007DE
:1001EB000BBB000F02038BEC2CFCEF33FFEE33FE4B
:0601FB00ED33FD02036379
:1002010002038BEC5D046005E8590470030203816D
:1002110012034C580460F6EC4860F2EC7004FDFEE9
:10022100FF22C860DB2481C85009C39860025006D0
:100231000203889850CAF582E9294B4A7005AB82BE
:1002410002037775F0007C1A7880C3EF9BEE9AED7C
:1002510099400DC3EF9BFFEE9AFEED99FDE842F048
:10026100DC23ACF0D0E0FFD0E0FED0E0FDAB82209B
:10027100E7101BEB60BAEC2CFCEF33FFEE33FEED25
:1002810033FD020363E803F830E705C0F075F000C1
:10029100EF2FFFEE33FEED33FD40B830E7C280AA09
:1002A10074F8CC6480CCC86480C8F582046043C310
:1002B100EB9FF5F0EA9E42F0E99D42F0E89C45F0A3
:1002C10060305018E5825FFFE582F42B5582FB50C8
:1002D100210ABA001D09B90019088016E5825BFBE5
:1002E100E582F42F5582FF50090EBE00050DBD00B9
:1002F100010CC3EB9FF5F0EA9E42F0E99D42F0E864
:0D0301009C45F06007CC4820E701B3EC22DA
:10030E0075F020800E75F010800575F0087D007E6A
:10031E00007F003392D530D503120590EC33401098
:10032E00EF33FFEE33FEED33FDEC33FCD5F0ED2273
:0E033E00E5F0247EA2D513CC92E7CDCEFF22AF
:1005F900E5392425F8E605392278223007027825DD
:10060900E475F0011205C30205382000EB7F2ED2F4
:10061900008018EF540F2490D43440D4FF30040BD9
:10062900EF24BFB41A0050032461FFE53A600215B4
:100639003A053DE53D7002053C30070D7822E47529
:10064900F0011205C3EF02057E020F627403D2079F
:100659008003E4C207F5398B228A238924E4F53A19
:10066900F53CF53DE53A60077F2012063480F575C3
:100679003BFFC201C200C202C203C205C206C208D0
:10068900120602FF700D3007057F00120645AF3DC7
:10069900AE3C22B4255FC2D5C204120602FF24D0A3
:1006A900B40A00501A75F00A783A30D50508B6FF31
:1006B9000106C6A426F620D5047002D20380D924E7
:1006C900CFB41A00EF5004C2E5D204020932D201B4
:1006D90080C6D20080C0D20280BCD2D580BAD205F1
:1006E90080B47F201206342002077401B53A004015
:1006F900F11205F9FF12063402066DD208D20680FE
:10070900951205F9FB1205F9FA1205F9F94A4B7028
:100719000679297A0A7BFF20022EE53A602A7E00B3
:100729008E8275830012055160060EEE653B70F0EE
:10073900C2D5EBC0E0EAC0E0E9C0E0EE120992D010
:10074900E0F9D0E0FAD0E0FB120538FF60AAEBC06F
:10075900E0EAC0E0E9C0E0120634D0E02401F9D0B3
:10076900E03400FAD0E0FBE53B0460DCD53BD980FE
:1007790087D20280A212097560F7E53B7001041265
:100789000396A93B600DE53B600914F53B120A1C71
:10079900EF60F3EA30E702F404C3995077EAF425ED
:1007A9003B0430E701E404F53B800D12097560C193
:1007B900EA053B253B120396EA7838F630E701E46F
:1007C900253B04D53B0420050114120992E4C0E03D
:1007D900120A1C7838E6601320E70714F612061C83
:1007E900802204F6D0E014C0E07F0012061CE53B2D
:1007F9006007120613153B800B300503120613D050
:10080900E002066DD0E00480C512097560A0E53BE1
:10081900041203967838EAF6E53B200502600104E4
:050829002404120992F5
:10082E0074FF04C0E0120A1C12061CE53B200502F0
:10083E006003120613D0E0B53BE87F45120626781A
:10084E0038E67F2B30E7047F2DF404C0E012063427
:10085E00D0E075F00A84C0F012061DD0E012061D1D
:10086E0002066D791080027908C206C2088008D28D
:10087E00D5790A8004790AC2D5E53B047002F53BAE
:10088E00E4FAFDFEFF1205F9FC7B082001131205A8
:10089E00F9FD7B1030000A1205F9FE1205F9FF7BF7
:1008AE0020EC3382D592D55013C3E43000069FFF5F
:1008BE00E49EFEE42001039DFDE49CFCE4CBF8C223
:1008CE0001EC700CCFCECDCCE824F8F870F3801785
:1008DE00C3EF33FFEE33FEED33FDEC33FCEB33FBB6
:1008EE00994002FB0FD8E9EB300105F8D0E0C4487F
:1008FE00B201C0E00AEC4D4E4F78207B0070C2EA88
:10090E00B53B0040BCC0E0120994D0F0D0E020010D
:10091E0004C4C0E0C4B201C0F012061DD0F0D5F080
:10092E00EB02066D1205D3070A5308715806DB4C0D
:10093E0006D74208754F087D44087D4906F04308E6
:10094E00835507B446081245077E470A495006DF0D
:10095E002D06E32E07062B06E7230704200A322A6C
:10096E00069F48000006FEE53BB4FF03753B0612EA
:10097E0005F9FC1205F9FD1205F9FE1205F9FF78CD
:10098E00310203C5790AA2D5200314300509B91026
:10099E00020404B9080104A2D52006025001042065
:1009AE0002689202B53A005034C0E07F203003193D
:1009BE007F30A20272067205500F1209EBC202C2FC
:1009CE0006C205C2087F30800F300503E9C0E01271
:1009DE000634300503D0E0F9D0E0B53ACC30051737
:1009EE007F30B9100C1206347F583004077F7880A0
:1009FE0003B908031206343002057F2D0206347F38
:100A0E00202008F87F2B2006F322920280CF7F0051
:100A1E00B4070050052431F8E6FF22286E756C6C81
:100A2E002900D2011205F93001F8C201783A30D509
:100A3E000108F602069F2D504349581205F924036A
:100A4E00B405004001E4900A4493120625743A124C
:0A0A5E000625D203753A0402087160
:100D020002038122EDA2E7D2E7F9EC3340F260F36D
:100D1200B4FF08ED547F70E802038BF82481C2E02F
:100D2200C0E0F40428FAC313FCED92E7FD8C228D97
:100D3200238E248F25EEA2E7E9BA7F02C313340083
:100D42009400FA75F091A4E5F013F494FE8AF0A4ED
:100D520033E5F033248CD313FDE492E7FE7F007C6D
:100D62003F758302ECC0E0F8EDC0E0F9EEC0E0FAB6
:100D7200EFC0E0FBAC22AD23AE24AF25120204D0BB
:100D8200E0FBD0E0FAD0E0F9D0E0F812000AED641E
:100D920080FD30E7011CD583CBED33CC33F8D0E0B6
:0A0DA200A2E71328C313CC13FD22AF
:10034C00E9D2E7C933E833F892D5EDD2E7CD33ECF7
:07035C0033FC5002B2D52270
:10036300EC30E7100FBF000C0EBE00080DBD0004FB
:100373000BEB6014A2D5EB13FCED92E7FD2274FFA7
:10038300FCFDFEFF22E480F8A2D574FF13FC7D8000
:03039300E480EF14
:10039600F920E72824F950037907E4F42402FB182E
:1003A600DBFDE624FB5014E9600DE4F618E604F6DE
:0F03B600B40A08E4F6D9F57401F60A22C2D5227A
:1003C500ED33EC3392D5FA602AB4FF33EDC2E77B07
:1003D500FF60067A0379EAE4227A0379F320D504EB
:1003E5007A0379EE224E614E002B494E46002D4987
:1003F5004E4600E47A08F608DAFC7B00740722E82A
:10040500C0E0ECC0E0EDC0E0EEC0E0EFC0E0EA75B2
:10041500F010A4CAABF075F04DA42BFBE435F0FC4D
:10042500EA2410FAEB34C5FBEC34D9FCEDC2E7FF46
:1004350075F056A4F42411C5F0F434C58FF0A42A40
:10044500E5F03BE43CF620E7141204F8D0E0FFD0D9
:10045500E0FED0E0FDD0E0FC1202048014F40412AA
:1004650004F8D0E0FFD0E0FED0E0FDD0E0FC1200C3
:10047500FBD0E0F8E6FAEDD2E7CD33EC332482FB8E
:10048500E4C3CF33CFCE33CECD33CD33DBF37B07D0
:1004950075F00A846004F6081B0AE5F0F6088FF08B
:1004A500740AA4FFACF08EF0740AA42CFEACF050D4
:1004B500010C8DF0740AA42CFDE435F0F608DBDEA2
:0304C50074072297
:1004C8003F8000004120000042C80000447A00003C
:1004D800461C400047C35000497424004B189680BE
:1004E8004CBEBC205A0E1BCA6753C21C749DC5AEB5
:1004F800FB60065407601C2323120526EB54386062
:10050800091205121205211200FBECF8EDF9EEFABA
:10051800EFCB22EB12052180F1543803241C900400
:10052800C8FE93FC0EEE93FD0EEE930ECE93FF22C3
:0300000002101FCC
:0C101F00787FE4F6D8FD75817B020A683A
:10053800BB010689828A83E0225002E722BBFE02C1
:09054800E32289828A83E49322F4
:10055100BB010CE58229F582E5833AF583E022505F
:1005610006E92582F8E622BBFE06E92582F8E222A9
:0D057100E58229F582E5833AF583E49322C3
:10057E00BB010689828A83F0225002F722BBFE015C
:02058E00F32256
:0E059000C3E49FFFE49EFEE49DFDE49CFC227C
:0C059E00E6FC08E6FD08E6FE08E6FF2289
:0D05AA00E6FB08E6F908E6FA08E6CBF822C1
:0C05B700ECF608EDF608EEF608EFF62270
:1005C300FAE6FB0808E6F925F0F618E6CA3AF62239
:1005D300D083D082F8E4937012740193700DA3A3B7
:1005E30093F8740193F5828883E4737402936860CB
:0605F300EFA3A3A380DFCB
:100F6200EFB40A07740D120F6D740A309811A89924
:100F7200B8130CC2983098FDA899C298B811F630EF
:070F820099FDC299F59922C7
:00000001FF
